:020000040800F2
:10000000E8200020252100082D21000831210008CA
:1000100035210008392100083D21000800000000BA
:100020000000000000000000000000004121000866
:100030004521000800000000492100084D2100086A
:100040005121000855210008592100085D210008B0
:100050006121000865210008692100086D21000860
:100060007121000875210008792100087D21000810
:100070008121000885210008892100088D210008C0
:100080009121000895210008992100089D21000870
:10009000A1210008A5210008A9210008AD21000820
:1000A000B1210008B5210008B9210008BD210008D0
:1000B000C1210008C5210008C9210008CD21000880
:1000C000D1210008D5210008D9210008DD21000830
:1000D000E1210008E5210008CF1D0008ED210008FE
:1000E000F1210008F5210008F9210008FD21000890
:1000F0000122000805220008092200080D2200083C
:100100001122000815220008192200081D220008EB
:100110002122000825220008292200082D2200089B
:100120003122000835220008392200083D2200084B
:100130004122000845220008492200084D220008FB
:100140005122000855220008592200085D220008AB
:100150006122000865220008692200086D2200085B
:100160007122000875220008792200087D2200080B
:100170008122000885220008892200088D220008BB
:10018000912200089522000840F0200070472DE9D8
:10019000F14FB0B0924604910DF142013A9A2B9181
:1001A00099464A7000200AE01AF8011B0498309A18
:1001B00090470028049000F031860D98401C0D9067
:1001C0009AF8000050B12528EED1002100220791B5
:1001D000089209910A920B910C9204E00D9800F09C
:1001E0001FBE41F001011AF8010F2028F9D0232881
:1001F0000CD02B2804D02D2805D0302809D00BE0B6
:1002000041F00201EFE741F00401ECE741F00801A1
:10021000E9E741F01001E6E72A280FD1D9F80020DC
:1002200052F8040BC9F8002000280F9003D5404273
:100230000F9041F004010AF1010A14E00F92DFF877
:10024000E83B0AE00F98984205DA00EB800402EBE5
:100250004402303A0F920AF1010A9AF80020A2F102
:1002600030000A28EED39AF800002E2803D04FF071
:10027000FF320E9229E01AF8010F2A2809D1D9F885
:10028000000050F8042BC9F800000E920AF1010A90
:100290001BE02D280CBF0AF1010A002000220E925B
:1002A000DFF8844B0BE040B90E9AA24205DA02EB6C
:1002B000820503EB4503303B0E930AF1010A9AF8DD
:1002C0000030A3F130020A2AEDD3ADF840100FF64A
:1002D0005C309AF8001000F0C1FE08B11AF8010B6A
:1002E0008DF842009DF84200682805D19AF8000078
:1002F00068280CD1622106E06C2804BF9AF800003F
:100300006C2804D171218DF842100AF1010A12A85B
:1003100006901AF801BBBBF125012CD01C3900F066
:100320009481091F022940F29081133900F0A884BA
:10033000093900F08A81891E00F03D85491E00F0D0
:10034000EA84491E022940F28081091F00F0E384FB
:10035000491F00F0EF80491E00F09284491E00F012
:10036000D780C91E0CD0891E00F08A84C91E00F0F7
:10037000878400F02BBD01220792252100F023BDC8
:10038000D9F8000050F8044BC9F80000002C05947F
:1003900040F0AB802B994878002800F0A1804FF006
:1003A000FF340FF6902000F069FE201A40F03685E9
:1003B00000F018BD01236A4602A9304600F0FEFD98
:1003C000002840F02B856D1EF4D13096079D12AFAA
:1003D00075B1309E17F8011B0498B04700280490AF
:1003E00000F01C850D98401C6D1E0D90F2D13096CA
:1003F0000A9D3021002D8DF800100CDD309E012368
:100400006A4602A9304600F0D9FD002840F0068572
:100410006D1EF4D13096059F089D75B1309E17F87A
:10042000011B0498B0470028049000F0F7840D9851
:10043000401C6D1E0D90F2D130960B9D3021002D89
:100440008DF800100CDD309E01236A4602A930466B
:1004500000F0B4FD002840F0E1846D1EF4D1309628
:1004600005980899099D471875B1309E17F8011B2A
:100470000498B0470028049000F0D0840D98401CE8
:100480006D1E0D90F2D130960C9D3021002D8DF80F
:1004900000100CDD309E01236A4602A9304600F0B0
:1004A0008DFD002840F0BA846D1EF4D130969DF881
:1004B000400041077FF584AE2020002C8DF800001D
:1004C0007FF77EAE309D01236A4602A9284600F0E0
:1004D00075FD002840F0A284641EF4D130956FE6CB
:1004E0000FF63830059000F07DBC0E9D002D04D530
:1004F000204600F0E3FD044607E02A46204600F0CF
:10050000F9FD002814BF041B2C46089400F06ABCB7
:10051000D9F8001051F8040BC9F8001020F00004BD
:10052000002121F0FF35CDE9024512AB059378217A
:1005300000F03DBC2B99487820B14FF0FF340FF606
:10054000AC2030E79DF84200622860D0682817D0C0
:100550006A283FD06C2806D0712847D074282CD048
:100560007A281DD062E0D9F8001051F8040BC9F8C0
:100570000010002866D14FF0FF340FF6882012E7F4
:10058000D9F8001051F8040BC9F8001020B94FF049
:10059000FF340FF6702006E70D99018000F022BCB1
:1005A000D9F8001051F8040BC9F80010002849D1FF
:1005B0004FF0FF340FF64C20F5E6D9F8001051F853
:1005C000040BC9F8001000283CD14FF0FF340FF69F
:1005D0003420E8E6D9F8001051F8040BC9F80010EF
:1005E00080B94FF0FF340FF61C20DCE6D9F800107C
:1005F00051F8040BC9F8001020B94FF0FF340FF682
:100600000420D0E60D9AD317C0E90023EAE3D9F815
:10061000001051F8040BC9F8001020B94FF0FF3456
:100620000FF6E010BFE60D990170DBE3D9F800107A
:1006300051F8040BC9F8001020B94FF0FF340FF641
:10064000C410B0E60D990160CCE39DF842004C283F
:1006500007BFD9F80010CB1DD9F80000C31D23F047
:100660000703C9F80030D3E900010833C9F80030A6
:10067000CDE90201C80F02D007982D210AE0BDF88C
:100680004000810702D507982B2103E0C00705D55C
:100690000798202112AB1954401C079012A8079903
:1006A000DDE9024543184BF020006128059321AE97
:1006B0000BD00E98002802D506200E9005E001BF51
:1006C0004BF02000672801210E91DDE902014F0067
:1006D0007F1517F1010F0DD108030BD0ABF16102AB
:1006E00003201A2A089002D20FF634110FE00FF6F9
:1006F00034110CE017F1010F0ED109030CD1ABF14D
:10070000610203201A2A08901CD30FF6201103223D
:10071000184600F01BFD65E3DDE902016A4600F0C2
:1007200069FDCDE902014BF02000612811D1059847
:1007300030210170821C0592BBF1610F0CBF782142
:10074000582102E00FF6E001E1E741700798801CB4
:100750000790DDE9020120F0000231F0004308BFFC
:10076000002A02D10025002445E14BF02008B8F111
:10077000610F40F095800E98002847BF212101911C
:10078000401C0190019F7F1C204629460022002327
:10079000DDE9024500F066FD38BF85F000450099AF
:1007A0008DF88420091F002F00910DF1850034DDA4
:1007B0000646204629460022002300F06DFD2BD27C
:1007C0001C2200F083FD04460D4600F01DFEFF1FB5
:1007D000002F804609DD00F033FE02460B4620461E
:1007E000294600F0F5FE04460D46F01D0721B8F13C
:1007F000000F0CDD491E5EBF08F00F0200F8012D4E
:100800004FEA2818F3D502E0002200F8012D491E16
:10081000FAD5C61D002FCCDC30460DF18501401AFB
:1008200001990DF1850605468842C8BF0D46002D89
:100830002FD4854206DA0DF18500415D0829A8BF55
:100840000F2000DA0020294621AA0A4400E06D1E8C
:1008500012F80139491E8342F9D00F2804D10DF155
:100860008500425C521C4254002904D50098001DAA
:1008700021AE6D1C0090681E0BD431180A783032FE
:10088000D3B23A2BA4BF5A443A3A401E01F8012988
:10089000F4D50E98002840F1AD80691E0E91A9E0B4
:1008A0000099DFF8082747F29750414391FBF2F295
:1008B000009225F00045C2F10702002A04DD20461F
:1008C000294600F04FFB0BE052420020DFF8E01613
:1008D00000F048FB02460B462046294600F0EAFE9F
:1008E00004460D46B8F1660F06BF009F0A3706277B
:1008F0000E983F18142FC8BF142730208DF884009D
:100900000DF1850000E03046002F35DD064620461B
:10091000294600F0F3FF01460A4606F108030420C9
:100920000A26B2FBF6F606EB860EA2EB4E0230323A
:1009300003F8012C0A22B6FBF2F202EB820EA6EBC0
:100940004E063036401E03F8026DE9D1083F002FF5
:1009500003F10806D7DD084600F0E2FF02460B4629
:100960002046294600F034FE0022DFF8483600F029
:10097000E5FF04460D46CAE70DF18501401A0DF169
:10098000850604E00099491E401E0091761C3178CE
:100990003029F7D0B8F1660F02D10099491C04E064
:1009A000B8F1650F0CBF012100210E9D4D19A84221
:1009B000B8BF451E002D1DD4854204DA705D342871
:1009C000C8BF392000DC30202946721E531800E0D1
:1009D0006D1E13F80149491E8442F9D0392802D10D
:1009E000705C401C7054002904D50098401C1646C9
:1009F0006D1C0090009C01F077F8406A0778DDF8E4
:100A0000388028B2002802DC01250FF224664BF062
:100A10002000662808BF641C16D0672846D120B283
:100A200010F1040F48DB404546DA9DF84000641C95
:100A3000010703D428B24045D8BF804620B2B8EBA6
:100A4000000848BF4FF000080FFA84FBBBF1000F0D
:100A500000F3B5800898411C0891302205990A548A
:100A6000B8F1000F03DC9DF84000010704D5089899
:100A7000411C089105990F5418EB0B0FB8BFC8F132
:100A8000000424B26042A0442AB20B909045B8BF43
:100A90004546059B08982DB209952A4631461844CB
:100AA00000F054FBA8EB05000C90D2E0BBF1610F05
:100AB00017D14FF0700B19E028B2404504DA9DF8C9
:100AC00040100A0758BF8046B8F1010848BF4FF0F0
:100AD0000008BBF1670F14BF4FF0450B4FF0650BDB
:100AE00004E0BBF1410F08BF4FF0500B0898411CC8
:100AF0000891B8F1000F059916F8012B0A5403DC90
:100B00009DF8400001071AD50898411C0891B8F1DA
:100B1000000F05990F5412DD6D1E28B28045B8BF35
:100B200045460598089B2AB23146184400F00EFB52
:100B300008992DB269180891A8EB05000B9005984B
:100B40000899084421B2002980F800B003D42B2270
:100B50004270821C04E02D2242700C46821C6442CA
:100B600000212CAB20460AE004460A2094FBF0F05A
:100B700000EB8005A4EB450403F8014B491C00B2CF
:100B80000028F1DC012906DC4BF02000652804BFB9
:100B9000302002F8010B00292CAB08D1302002F8DC
:100BA000010B06E0491E585C303002F8010B0029A9
:100BB000F8DC059908980844121A099249E028B20D
:100BC00021B288421CDA0598089B2AB231461844A3
:100BD00000F0BCFA08992DB269180891ABEB05003A
:100BE000B8F1000F0B9003DC9DF84000020704D51C
:100BF000059847540999491C0991CDF8308028E09F
:100C00000598089B22B23146184400F09FFA0898D4
:100C10002D1B5844B8F1000F089003DC9DF84010DC
:100C20000A0703D5411C089105990F5428B2804545
:100C3000B8BF45460598089B2AB206EB0B0118443D
:100C400000F084FA08982DB228180890A8EB050047
:100C50000B909DF8400000F01400102840F0C28076
:100C6000079A08990B988A18099982180C988A187B
:100C700082180F98824280F2B580821A0A92B1E0FF
:100C80009DF84200622808D068280ED06A2814D047
:100C90006C281FD0712810D01CE0D9F8001051F832
:100CA000040BC9F80010C0B21AE0D9F8001051F8CE
:100CB000040BC9F8001080B212E0D9F80000C21D80
:100CC00022F00702C9F80020D2E900010832C9F871
:100CD000002006E0D9F8001051F8040BC9F8001004
:100CE0000021CDE902019DF8400001075AD5DDE958
:100CF0000223002B08BF002A54D04BF02000782894
:100D000050D1079812A930220A54401C431C079363
:100D100001F800B046E09DF84200622808D068283B
:100D20000ED06A2814D06C281FD0712810D01CE077
:100D3000D9F8001051F8040BC9F8001040B21AE0BD
:100D4000D9F8001051F8040BC9F8001000B212E0F5
:100D5000D9F80000C21D22F00702C9F80020D2E92C
:100D600000010832C9F8002006E0D9F8001051F857
:100D7000040BC9F80010C117CDE90201002902D502
:100D800007982D210AE0BDF84000810702D5079899
:100D90002B2103E0C00705D50798202112AA115482
:100DA000401C079012A8079901440591594602A8D2
:100DB00000F04EF816E001200790D9F8000050F836
:100DC000041BC9F800008DF848100BE00121252212
:100DD000BBF1000F07918DF8482003D00222079243
:100DE0008DF849B00F9A07980A990C9C121A089826
:100DF000521A0B99121A0998521A121A9DF84000A9
:100E0000141B41073FF5E2AA2020002C8DF80000BA
:100E10007FF7DCAA309E2546FFF7CCBA4FF0FF30B3
:100E200031B0BDE8F08F0000CBCCCC0C686A6C749C
:100E30007A4C00007072696E74665F733A2062616A
:100E40006420257320617267756D656E7400000003
:100E50002DE9FC4707468A463C6950466F2808BF83
:100E6000082505D0FFF790F9782814BF0A2510252A
:100E7000D7E900013C2680468946BAF1640F18BFC5
:100E8000BAF1690F05D1002903D5D8F1000869EB43
:100E90004909B9F1000F08BFB8F1000F0CD1386B48
:100EA00050B9082D3AD197F83800010736D53022CD
:100EB0003B2684F83B2031E08DF800A040464946AF
:100EC0002A46EB1700F014FE3032D0B2761E3A28D4
:100ED00001960EDAA255404649462A46EB1700F025
:100EE00007FE80465FEA010908BFB8F1000F05D18F
:100EF00008E09DF800001218513AEBE7F868A119D4
:100F00008842DBD3082D09D197F83800010705D5B1
:100F1000A05D302802D0761E3020A055C6F13C02DC
:100F2000BA61A119F960386B824208DA821A3A6212
:100F30004FF6EF70398F01403987BDE8F3870028FD
:100F40000ED597F8380000F01400102808D17B6BFC
:100F50007969386A5B1A1B1A9A1A002AC8BF3A6262
:100F6000BDE8F3872DE9D04306460F4614464FF0FF
:100F70000008DFF8449012E0E00707D542464B46F0
:100F80003046394600F0DAFC06460F4640464946F0
:100F900042464B4600F0D2FC641080468946002C45
:100FA000EAD130463946BDE8D0830000A086010072
:100FB0000000F03F84D7974100002440F8B5054673
:100FC0000E4617461C4600205CB117F8011BB0689E
:100FD000A847B06030B1F06A401CF0620020641E87
:100FE000F3D1F2BD4FF0FF30F2BD00007072696EB8
:100FF00074665F733A20256E20646973616C6C6F50
:10100000776564007072696E74663A20626164206C
:10101000256E20617267756D656E740000000000BA
:101020006E616E004E414E00696E6600494E46008C
:1010300030000EE002684368024408305FEAC37C77
:1010400044BF4B445B1E52F804CB43F804CB091F4A
:10105000F9D150F8041B0029ECD17047C9B20278CD
:101060008A421AB11CBF10F8012FF9E718BF0020FF
:1010700070470268531C03601170704780B500B957
:1010800006A005490B681BB122220021984701E008
:1010900000F046FE222002BDE4000020636F6E7364
:1010A000747261696E742068616E646C65723A2056
:1010B000626164206D6573736167650000F101030F
:1010C000810704D010F8011B820781B1FAD10268B0
:1010D000A2F10131914311F0803104BF50F8042F87
:1010E000F6E709BAB1FA81F100EBD100401CC01A51
:1010F00070472E00C9B2830706D0521E22D310F8C3
:10110000013B9942F7D11FE0083A13D302F10402E0
:1011100041EA012141EA014150F8043B121F21BF7D
:101120004B40A3F1013C2CEA030C1CF0803FF3D0B0
:10113000C9B2001F083210F8013B521E28BF91EAC5
:10114000030FF8D818BF0120401E704762B38B0709
:1011500008D0521E11F8013B00F8013B00F024803A
:101160008B07F6D1830740F0208000BF103A07D3E9
:1011700030B4B1E83810103AA0E83810F9D230BCD9
:10118000530724BFB1E80810A0E8081044BF51F885
:10119000043B40F8043BD20724BF31F8022B20F86F
:1011A000022B44BF0B7803707047121F17D35B00EC
:1011B00009D151F8043B20F8023B1B0C121F20F808
:1011C000023BF6D20BE051F8043B00F8013B1B0A4E
:1011D00020F8023B1B0C121F00F8013BF3D238BF72
:1011E000121D521E24BF11F8013B00F8013BF8D834
:1011F0007047000010B5144600F002F8226010BDE0
:10120000C1F30A5343B14A0012F5001F28D2A3F2DA
:10121000FE32A1EB0251704750EA410C20D001F0A0
:10122000004C31EA0C01B1FA81F204BFB0FA80F34C
:10123000D2180B3AB2F120032CBF00FA03F191400F
:1012400041EA0C013EBFC2F1200C20FA0CF3194315
:101250009040524240F2FD33D21A01EB03517047E5
:101260000022704741EA030C50EA4C0C52EA0C0C85
:101270004FF4001C09D307D01CEB410F9CBF1CEBA3
:10128000430F8B4208BF824270471CEB430FFBD8D1
:10129000994208BF9042704741EA030C50EA4C0C57
:1012A00052EA0C0C4FF4001C09D307D01CEB410F81
:1012B0009CBF1CEB430F994208BF904270471CEB48
:1012C000410FFBD88B4208BF82427047124254D470
:1012D00040F2FF7C1CEA11530FD0634531D09B18BC
:1012E00063453CBF01EB0251704701F0004141EA08
:1012F0000C510020AFF30080704750EA410320D02A
:1013000001F0004C91EA0C011CD0B1FA81F30B3BC7
:101310009A420DD9D21A994051EA0C01C3F1200C1E
:1013200020FA0CFC61449840531C40F2FF7CD7E744
:10133000914041EA0C01C2F1200C20FA0CF3194350
:1013400090407047B0FA80F31533202BE0D3202A69
:10135000EED3203A203B9A4209D9D21A00FA03F17F
:1013600041EA0C010020531C40F2FF7CB8E700FA70
:1013700002F141EA0C0100207047524240F2FF7C2A
:101380001CEA11530DD06345DBD0B2EB030C3CBF1C
:10139000A1EB025170470CF1010221EA035141F423
:1013A000801150EA410CCCD001F0004C352A27DCEA
:1013B00030B481EA0C01B2F1200309DAC2F1200352
:1013C000044601FA03F5D0402843D1409C400CE08C
:1013D000C3F12002450020FA03F418BF44F00104D1
:1013E00021FA03F091400C43002174F1004550F1C3
:1013F000000051EB0C01244230BC7FF47BAF7047FE
:101400006146002076E70000C1F30A5340F21E4215
:10141000D31A0CDDCA0283F3070342EA505242F0AA
:101420000042DA4002EBE17282EAE17070476FEA53
:10143000E17203F2E13008B182F000407047000031
:1014400010F0004160B148BF4042B0FA80F29040D5
:10145000D21CC2F5846241EA025202EBD02140055F
:1014600070470000841A71EB030604D26E40001B23
:10147000B141121973414FF4001C1CEB410F34BFF2
:101480007CEB430683E00C0DA4EB1356362E00F3E1
:101490007C80012E45EAC32341DC43EA525312BF4C
:1014A000D20292025B08240545EAC12141EA50516B
:1014B000D2EBC020994125D407D1B0FA80F610FABA
:1014C00006F162D00020203608E0B1FA81F6B14082
:1014D000C6F1200220FA02F21143B0404FEAF47440
:1014E000B4EB465434F001064FEA74040AD8D6F53A
:1014F0000016760D04F00044F04061FA06F2504008
:10150000F1404840C00A40EA415021F0004128BF64
:101510005FEA500550F1000044EBD12135E0DB0AD1
:1015200045EAC121C90AB6F120050EDD42EA0242B0
:10153000120CC5F1200603FA06F6EB4042EA060556
:101540006D42984161F100010DE062FA06F5F2404A
:10155000554063FA06FC82EA0C02F3405A406D42A1
:10156000904161EB030111F4801F05D1641E6205F7
:1015700002D06D004041494121F48011430875F1CA
:10158000004350F1000041EB045170BC70471CEB6C
:10159000410F15D223F0004352EA43060BD04FEA25
:1015A0004C0CBCEB410F04D80C0D661E342EB7DD7D
:1015B000EBE7801A994150EA410608BF0021E4E7B1
:1015C00008BF1CEB430F28BF6FF00001DDE70000F0
:1015D00070B491EA030F4FF000457FF543AF6B40C5
:1015E000841A71EB030603D2001BB1411219734137
:1015F0004FF4001C1CEB410F34BF7CEB430442E072
:101600000C0DA4EB1356352E4FDC45EAC323DB0A41
:1016100045EAC121C912B6F120050DDD63FA05F6D0
:10162000EB4086EA0305124218BF45F00105C018D9
:1016300051F100010CD213E062FA06F5F240554078
:10164000F3415A40B340F3405A408018594107D300
:1016500049085FEA30005FEA350528BF45F001051B
:1016600001F58011420875F1004250F1000041EB94
:1016700004514E0016F5001F70BC38BF70470020A3
:10168000090D090570471CEB410F10D252EA4306C1
:101690000BD0BCEB410F05D80C0DAB43661E342EAE
:1016A000B6DD02E0AB438018594170BC704770BC96
:1016B00070470000F0B540F2FF7581EA030C0CF0B2
:1016C000004C15EA11541DBF15EA1357AC42AF4246
:1016D000E5E0BC41C1F31301C3F31303801A994140
:1016E00043F4801304D2641E001849418018594104
:1016F000C90241EA5051B1FBF3F603FB1611A2FBFC
:101700000675D7EBC020A94102D2761E8018594138
:10171000C90241EA5051B1FBF3FE03FB1E11A2FBCB
:101720000E75D7EBC020A94103D2AEF1010E80188F
:101730005941890241EA9051760546EA8E2EB1FB65
:10174000F3F603FB1611A2FB0675D7EB8020A94127
:1017500002D2761E80185941C90241EA50514EEA20
:10176000060EB1FBF3F603FB1611A2FB0675D7EBD1
:10177000C020A94102D2761E80185941C90241EA0F
:101780005051B1FBF3F703FB1711A2FB0735D3EB65
:10179000C020A94167F100070CBF004247F00107D4
:1017A00066F3D5274FEA1E31B80814F5806412DDC0
:1017B000BD0775F1004250EB0E5051EB045111F58D
:1017C000801F5CBF41EA0C01F0BD4CF07F6141F02D
:1017D000E0410020F0BDBD076D0840EA0E5041F425
:1017E0008011D4F10104B4F120060ADAC4F1200614
:1017F0000200E04001FA06F3E1401843B24015430D
:101800000EE0342C13DCC6F1200445EA40056D08D7
:1018100020FA06F2154321FA06F0A1400D430021FB
:1018200075F1004250F1000051EB0C01F0BD0020B9
:101830005FEA0C01F0BDCFB992185B41B3FA83F7B0
:1018400004BFB2FA82F6BF190B3FB7F120062FBFD3
:1018500002FA06F3BB40C7F1200622FA06F638BFAB
:101860003343BA401CB1E419641E33E77F4231F0C0
:101870000041B1FA81F404BFB0FA80F6A4190B3C20
:10188000B4F120062FBF00FA06F1A140C4F12006F2
:1018900020FA06F638BF3143A0403C1B1AE7AC42A1
:1018A0001ABF05EA1357AF4212E050EA41061CBFC7
:1018B00052EA4306BFE750EA4107304661461CBF83
:1018C00041EA0551F0BD52EA430C08BFC143F0BDE7
:1018D00000204FF4001616EB410F98BF16EB430F94
:1018E00008BF16EB410F24BFC14305E016EB430FC1
:1018F0000CBF61464CEA0551F0BD0000400D40F2BE
:101900001E4C40EAC120BCEB115C40F0004003D407
:101910008CF30701C84070476FEAE1707047000020
:1019200050B1B0FA80F18840C91CC1F58461090545
:1019300001EBD021400570470146704730B540F2B9
:10194000FF7C1CEA11541DBF1CEA13556445654514
:101950003FE0641981EA030C6FF35F530CF0004C15
:1019600043F48013C90241F0004141EA505EC502D0
:101970001100A5FB020200284FF00000EEFB012041
:101980004FF00001E3FB052118BF42F001024018AF
:1019900000214941E3FB0E01A4F580640D0302D24E
:1019A00092184041494154F1010470DD450872F13B
:1019B000004250F1000051EB0451A1F5801102D416
:1019C00041EA0C0130BD40F2FF7E4CEA0E5100208E
:1019D00030BD0CEA1355644518BF654581EA030C18
:1019E0000CF0004C41D050EA410E1CBF52EA430EAD
:1019F00002E06146002030BD24422C441BD15FEA46
:101A0000050EF6D0090302BF01460020AEF1140E08
:101A1000B1FA81F5AEEB050401FA05FE0C35C5F10E
:101A2000200100FA05F5C8404EEA000E6FF35F533F
:101A300043F480139CE733F00043B3FA83F504BF0B
:101A4000B2FA82FE75440B3D641BB5F1200E2FBF28
:101A500002FA0EF3AB40C5F1200E22FA0EFE38BF9B
:101A600043EA0E03AA40641C7CE750EA410E14BF0F
:101A700052EA430E6FF000014FF4001515EB430FCF
:101A80008EBF194615EB410F9DE7B4D830BDD4F198
:101A90000104B4F120050FDAC4F12005520828BF73
:101AA00042F0010210FA05FE01FA05F57244E2BFA8
:101AB000E0402843E1400FE0352C9ADCC5F12004DA
:101AC00052EA400220FA05F218BF42F0010231FA50
:101AD00005F0A1400A43002172F1004250F10000DC
:101AE00051EB0C0130BD00000048704700000020A1
:101AF000BBBBE1B1B2F5803F80F07E80022A1ED9E7
:101B00008C46B1FBF2F102FB11C31B0443EA104304
:101B1000B3FBF2FC02FB1C3380B240EA0343B3FB8D
:101B2000F2F002FB103240EA0C4000237047022A18
:101B300005D98446B0FBF2F002FB10C270474AB1EF
:101B400005D100F0010249085FEA30007047002229
:101B50000023704700F0E8B80B00020000210020CD
:101B60007047904271EB030CF6D3B3F5803F2FD250
:101B7000F0B5B3FA83F7B1FA81F4A7F10F0E3D1B6C
:101B80005340CEF1200602FA0EF2F3415340B5F174
:101B90000F0746D80F3C2C444140C4F12006A0401A
:101BA000F1414140B1FBF3F603FB1611A2FB0645E0
:101BB000001BA94102D2761E8018594180EA010219
:101BC00021FA0EF362FA0EF200215A403046F0BDBF
:101BD00030B4B1FBF3FC03FB1C11A2FB0C45001B52
:101BE000A94103D2ACF1010C8018594130BC024626
:101BF0000B46604600217047B2F1807F65D3F0B597
:101C0000B2FA82F7B1FA81F4C7F10F063D1B22FA4E
:101C100006F307F1110EF24120355A40B5F10F07D6
:101C2000B8D94140C4F12006A040F1414140B1FB88
:101C3000F3FC03FB1C11A2FB0C45001BA94103D2C2
:101C4000BCF1010C801859410F2F12D30F3FC9036B
:101C500041EA5041B1FBF3F603FB1611A2FB064526
:101C6000D4EBC030A94102D2761E8018594146EA11
:101C7000CC3C07B34140C7F12006B840F141414098
:101C8000B1FBF3F603FB1611A2FB0645001BA941AD
:101C900002D2761E8018594180EA010221FA0EF321
:101CA000C7F1200462FA0EF20CFA07F05A402CFA3F
:101CB00004F13043F0BD80EA010221FA0EF3002165
:101CC00062FA0EF260465A40F0BD8C46B1FBF2F16A
:101CD00002FB11C31B0243EA1063B3FBF2FC02FBDD
:101CE0001C331B024CEA002043EA1063B3FBF2FCF6
:101CF00002FB1C331B024CEA002043EA1063B3FBD7
:101D0000F2FC02FB1C331B024CEA002043EA106386
:101D1000B3FBF2FC02FB1C324CEA002000237047AC
:101D2000012000F003B800007047000020210903E3
:101D300026311820ABBEF9E7010049B2002908D4CA
:101D4000012210F01F018A407D4940B2400941F84C
:101D500020207047020052B2002A04D40901794AB7
:101D600040B2115407E00901774A40B210F00F0069
:101D7000104400F8041C704730B4046803254B007D
:101D80009D40AC430460046802254B009D402C43F9
:101D9000046008290BDA046A0F258B009D40AC43D0
:101DA0000462036A89008A401A4302620DE0436AB2
:101DB0000F2411F1F805AD00AC40A3434362436A20
:101DC000083989008A401A43426230BC7047614832
:101DD000008880B25D48604909885D4A0368D15433
:101DE0000168491C01600168802901DB0021016054
:101DF000704707E0574A12881206FBD50278564B07
:101E00001A80401C0A00511E002AF3D15148008854
:101E10004006FBD57047000050490860002001E0F3
:101E200000BF401C6428FBDB4D48016851F0804135
:101E3000016000E000BF4B4800688007FAD54A48BF
:101E40000068704710B54948016851F4807101601D
:101E50004748016851F001010160464C216831F4A6
:101E600040712160216851F4407121603C49012298
:101E70000A600422394B1A60002200E0521C142A26
:101E8000FCDB0A6852F080420A603649096889071B
:101E9000FBD539490A6852F400320A60016851F0F2
:101EA00001010160072202212000FFF765FF0722E0
:101EB00003212000FFF760FF40F282602F49088075
:101EC0002F480C210180018841F4005151F020017C
:101ED000018000212620FFF73DFF2620FFF72CFF81
:101EE000284C2068062801DB002020600420FFF732
:101EF00093FF2549226841F822002068401C206099
:101F00004A690868121A0B2A14DB4869002811D0A4
:101F10000420FFF781FF1D4908601D4C1D4A1E4922
:101F2000200000F03DF82000FFF7C8F80100200075
:101F3000FFF75FFF002019498842D1DA401CFAE719
:101F400000E100E000E400E018ED00E0D80000202F
:101F50003800002000440040044400403420014088
:101F600008200140002001404C200140443802403C
:101F7000303802400000024040380240084400402F
:101F80000C440040E0000020B8000020DC000020ED
:101F9000D0000020102100081C21000840420F0042
:101FA0000CB430B583B00A4606A902910446002558
:101FB0000194009502AB01A9084878441E30FEF751
:101FC000E6F8019A157000284EBF04460198041BDC
:101FD000204603B030BC5DF80CFB00BF97F0FFFF5C
:101FE00030B4002512E050F8042BD30744BF4A4414
:101FF000521E091F042942F8045BFAD213468C07CB
:1020000044BF15809B1CC90748BF1D7050F8041BB6
:102010000029E8D130BC7047F2110008F211000825
:10202000F2110008F2110008F2110008F211000884
:10203000F2110008FFFFFFFFFFFFFFFFF210000893
:10204000F2110008F2110008FFFFFFFFFFFF000080
:1020500010B5074979441831064C7C44163404E025
:102060000A68081D114488470146A142F8D110BDF5
:102070002C0000004C0000004EF68851CEF200010A
:10208000086840F470000860BFF34F8FBFF36F8F94
:102090004FF00170E1EE100A7047000045FFFFFFAE
:1020A000B0000000380000200000000087EFFFFFB4
:1020B0003800000064FFFFFF000000200000000067
:1020C00000F00DF8002801D0FFF7C2FFAFF3008049
:1020D0000020AFF30080FFF7B5FE00F002F801200A
:1020E000704700F001B8000007463846FFF71EFEB3
:1020F000FBE700000548014603B4684680F3098801
:10210000AFF30080FFF7B8FFFFF7DAFFA5EDF5FEAC
:10211000216761736C6F6767657200002573200A21
:102120000000000000480047F5200008FFF7FEBF50
:10213000FFF7FEBFFFF7FEBFFFF7FEBFFFF7FEBFD3
:10214000FFF7FEBFFFF7FEBFFFF7FEBFFFF7FEBFC3
:10215000FFF7FEBFFFF7FEBFFFF7FEBFFFF7FEBFB3
:10216000FFF7FEBFFFF7FEBFFFF7FEBFFFF7FEBFA3
:10217000FFF7FEBFFFF7FEBFFFF7FEBFFFF7FEBF93
:10218000FFF7FEBFFFF7FEBFFFF7FEBFFFF7FEBF83
:10219000FFF7FEBFFFF7FEBFFFF7FEBFFFF7FEBF73
:1021A000FFF7FEBFFFF7FEBFFFF7FEBFFFF7FEBF63
:1021B000FFF7FEBFFFF7FEBFFFF7FEBFFFF7FEBF53
:1021C000FFF7FEBFFFF7FEBFFFF7FEBFFFF7FEBF43
:1021D000FFF7FEBFFFF7FEBFFFF7FEBFFFF7FEBF33
:1021E000FFF7FEBFFFF7FEBFFFF7F1BDFFF7FEBF32
:1021F000FFF7FEBFFFF7FEBFFFF7FEBFFFF7FEBF13
:10220000FFF7FEBFFFF7FEBFFFF7FEBFFFF7FEBF02
:10221000FFF7FEBFFFF7FEBFFFF7FEBFFFF7FEBFF2
:10222000FFF7FEBFFFF7FEBFFFF7FEBFFFF7FEBFE2
:10223000FFF7FEBFFFF7FEBFFFF7FEBFFFF7FEBFD2
:10224000FFF7FEBFFFF7FEBFFFF7FEBFFFF7FEBFC2
:10225000FFF7FEBFFFF7FEBFFFF7FEBFFFF7FEBFB2
:10226000FFF7FEBFFFF7FEBFFFF7FEBFFFF7FEBFA2
:10227000FFF7FEBFFFF7FEBFFFF7FEBFFFF7FEBF92
:10228000FFF7FEBFFFF7FEBFFFF7FEBFFFF7FEBF82
:08229000FFF7FEBFFFF7FEBFE0
:04000005080020F5DA
:00000001FF
